:020000040800F2
:10000000A00600209D01000871140008DD130008FF
:1000100000000000000000000000000000000000E0
:1000200000000000000000000000000003150008B0
:100030000000000000000000011500080515000880
:10004000AF010008AF010008AF010008AF010008D0
:10005000AF010008AF010008AF010008AF010008C0
:10006000AF010008AF010008AF010008AF010008B0
:10007000AF010008AF010008AF010008AF010008A0
:10008000AF01000861150008AF010008AF010008CA
:10009000AF010008AF010008AF010008AF01000880
:1000A000AF010008AF010008AF010008AF01000870
:1000B000AF010008AF010008AF010008AF01000860
:1000C00000F002F800F03EF80CA030C80838241800
:1000D0002D18A246671EAB4654465D46AC4201D180
:1000E00000F030F87E460F3E0FCCB6460126334274
:1000F00000D0FB1AA246AB4633431847741D0000DC
:10010000941D0000103A02D378C878C1FAD852077B
:1001100001D330C830C101D504680C6070470000BD
:100120000023002400250026103A01D378C1FBD813
:10013000520700D330C100D50B6070471FB51FBDFB
:1001400010B510BD00F082FC1146FFF7F7FF01F07B
:1001500039FB00F09AFC03B4FFF7F2FF03BC00F098
:10016000CFFC000070B505460C46164602E00FCCE9
:100170000FC5103E102EFAD2082E02D303CC03C5B1
:10018000083E042E07D301CC01C5361F03E02178B9
:100190002970641C6D1C761EF9D270BD074880471B
:1001A00007480047FEE7FEE7FEE7FEE7FEE7FEE75B
:1001B00004480549054A064B704700005D150008D4
:1001C000C1000008A0000020A0060020A00200201E
:1001D000A0020020FEB5054610460C46184373D019
:1001E000AE468C460020AD1A01469C4167D3664658
:1001F000002701243D46B61A9D4102D313463A46D4
:100200002124654676462F04360C3E432D0CB61A43
:100210009D4104D3150C1B042B4312041034654676
:1002200076462F06360A3E432D0AB61A9D4104D360
:10023000150E1B022B4312020834654676462F0723
:1002400036093E432D09B61A9D4104D3150F1B01F3
:100250002B431201241D65467646AF07B6083E4380
:10026000AD08B61A9D4104D3950F9B002B43920015
:10027000A41C65467646EF0776083E436D08B61A1D
:100280009D411AD392185B41641C16E00018764613
:1002900065464941B71A9D410191009009D36046D6
:1002A000B11A98418E468446009801990025401C59
:1002B0006941DD0752082A435B08641EE6D5724691
:1002C000634603B0F0BDFFE700200146C046C046CC
:1002D0002A462346F5E701E004C0091F0429FBD2A2
:1002E0008B0701D50280801CC90700D002707047BF
:1002F00000290BD0C30702D00270401C491E0229FE
:1003000004D3830702D50280801C891EE3E7002204
:10031000EEE70022DFE7002203098B422CD3030A19
:100320008B4211D300239C464EE003460B433CD442
:10033000002243088B4231D303098B421CD3030AAA
:100340008B4201D394463FE0C3098B4201D3CB01DA
:10035000C01A524183098B4201D38B01C01A52410A
:1003600043098B4201D34B01C01A524103098B420E
:1003700001D30B01C01A5241C3088B4201D3CB00F9
:10038000C01A524183088B4201D38B00C01A5241DC
:1003900043088B4201D34B00C01A5241411A00D28C
:1003A00001465241104670475DE0CA0F00D04942F5
:1003B000031000D34042534000229C4603098B4265
:1003C0002DD3030A8B4212D3FC22890112BA030AED
:1003D0008B420CD3890192118B4208D3890192116F
:1003E0008B4204D389013AD0921100E08909C309F4
:1003F0008B4201D3CB01C01A524183098B4201D3F6
:100400008B01C01A524143098B4201D34B01C01AE0
:10041000524103098B4201D30B01C01A5241C30858
:100420008B4201D3CB00C01A524183088B4201D3C7
:100430008B00C01A5241D9D243088B4201D34B00E2
:10044000C01A5241411A00D20146634652415B1024
:10045000104601D34042002B00D549427047634605
:100460005B1000D3404201B50020C046C04602BD2B
:100470007047704770470000F0B5F94D0C091E0930
:100480002C402E402F468BB0A7437DD0B543FCD0E7
:10049000002E7AD0002CFCD00D465D40ED0F254398
:1004A000AC1BFF25AD0464190894C502440DC902B4
:1004B0002143500DDC0204430120C00701430443E3
:1004C000D2020191200C110C00958C4601042346A8
:1004D0008B430A9161460904E24D8A430991010A5E
:1004E0007D4449198039097805464D4301266D1828
:1004F000F605751B6943C90C640B891C4C436418D1
:10050000B5012C1B250C2E04B4434C434D43210C48
:10051000691889090591009DE90701D00121C907E2
:1005200004912C4601996708CD072F434C08059D7F
:10053000E10B4D432D0C29466646754302950D4649
:1005400045432E46029D7D1BB44100950D465D43FB
:1005500001942C0C2F040D465543AE462D0C3D4303
:10056000029503947546049C2D04641B049406D2E2
:10057000029C039D641C002675410395029401AC06
:1005800070CC009F7D1B01E03EE162E1B4410904B3
:100590000095079101940599A4086143090C0C4644
:1005A0004443650BE7040C4666467443A646640B59
:1005B0003C43039502947446049DE4042C1B04946C
:1005C00006D2029C039D641C00267541039502948B
:1005D00001AC70CC009F7D1BB44101940C465C4380
:1005E0000095650FE7000C465443A646640F3C4354
:1005F000039502947446049DE4002C1B049406D2D7
:10060000029C039D641C002675410395029401AC75
:1006100070CC009F7D1BB441AE09AF06049DC9009C
:10062000AD092F43049DA406AD060495079D3443F0
:1006300069180791059DE10B4D432D0C294666462F
:10064000754302950D4645432E46029D7D1BB441E0
:1006500000950D465D4301942C0C2F040D46554327
:10066000AE462D0C3D43029503947546049C2D0423
:10067000641B049406D2029C039D641C00267541F1
:100680000395029401AC70CC009F7D1BB441019492
:100690008C050694079C890A611800950791019CB6
:1006A0000599A4086143090C0D464543680BEF0406
:1006B0000D46644665436C0B3C43049FED047D1B73
:1006C000AC4602D20025641C6841009E019D371B88
:1006D00085410846584301950C46460FC5005443D2
:1006E000600F28436546E4002C1B02D20025401C05
:1006F0006E41019D3F1AB5412846BD098006284339
:100700008446A009BF064E020699A4067618074340
:10071000079D002068410A99079019430020099B12
:1007200000906046FF1913434041E20F64003A43D2
:10073000A4460446D71A8C41A04203D90120009058
:1007400020463A46C70F941840416246D20F2243D2
:10075000644664000494009CBE466400D71AA44614
:10076000044602978C417746002F01D1A04204D95C
:100770006046401C8446029A2046C40FA646941840
:100780004041049A0546D20F224364466400D31ABE
:100790008D417146002901D1A84202D928461A4646
:1007A000641C10430122002800D01643610200207F
:1007B000079B891904465C410223002C02DB49187F
:1007C00013466441089DCE0A2D145D194B0567053B
:1007D000E10A2C050D1908993E43C9076940002B11
:1007E00008D0934006D30022761C5141002B01D142
:1007F000760876001C4A002D43DB154241D0AA43FF
:100800003FD030460BB0F0BD06180D464D41174C99
:100810007642AC411AD395181C465C41134A6D428E
:10082000A24113D3012252054C00D4420AD15C00EC
:10083000D4420BD04B4002D592021143E2E749006B
:100840004908DFE75940C90FC90718E000200849E7
:10085000D8E7054801420DD10342F7D0F2E7000086
:100860000000FF070C1900000000F07F0000E0FF0F
:100870000000F87F114859400143C0124140002058
:10088000C0E70123089A9B069A4205DC032252071F
:100890008918C90FC907B5E7052252078918074A01
:1008A0001143D2125140ADE770B515461C460246C1
:1008B0000B4628462146FFF7DFFD70BDFFFFFF7F97
:1008C0001F22030C02D10F22000402D0030E03D01A
:1008D00004E00020014670470002083A030F01D1EE
:1008E0000001121F830F01D18000921E002801DB3E
:1008F0004000521E120551184205C0124118104600
:100900007047C10FC90700D040420122920711432E
:10091000D6E701218907D3E770B505464800440DA5
:10092000124B0020002C0AD0634008D09A4206DA0D
:100930006642B24203DD12054019514170BD002CE0
:1009400008D0002B09D0C90FC907002AF6DB084AD6
:10095000114370BDC90FC90770BD28460A03104373
:1009600002D00020034970BD284670BDFF0700007B
:100970000000F07F0000F87FF8B5224C4E00069D85
:10098000A6420AD8A64201D1002806D15E00A6429E
:1009900003D8A6420AD1002A08D00D2424042542F7
:1009A0002CD02946002000F02FF8F8BD0C461C433F
:1009B0000CD4994202D0EFF30080F8BD904202D0EF
:1009C000EFF30080F8BDEFF30080F8BD09242407A1
:1009D000E5008B4206D0EFF30080A043591A06D2FF
:1009E000284304E0101A05D3EFF30080A04380F3FE
:1009F0000088F8BDEFF30080A043F1E7009500F018
:100A00001BF8F8BD0000E0FFC80212D54803400FF4
:100A1000002804D0C803C043012188407047EFF389
:100A200000800001000903210907084380F30088C2
:100A3000704700207047000010B500200249029A5C
:100A400000F02BF810BD00000000F87F754600F0A4
:100A500053F8AE46050069465346C008C0008546B7
:100A600018B020B5FFF7A4FB60BC00274908B646C4
:100A70000026C0C5C0C5C0C5C0C5C0C5C0C5C0C5AD
:100A8000C0C5403D49008D46704710B50446C0467C
:100A9000C0462046FFF75FFB10BD10B50C4611079E
:100AA000090F092904D00A290AD008290CD104E029
:100AB00011460820FFF7A8FF06E0510606D501E021
:100AC000510601D50120C007214610BDD10607D52A
:100AD00001010909CC084907000E0006044309E09A
:100AE000410F20024907000A0143200E00061D2283
:100AF000D14101430846E7E7004870474000002025
:100B000001491820ABBEFEE7260002007047000036
:100B10000920C00601680C22114301601148816957
:100B200042151143816110480021C160C26843141D
:100B30001A43C260826A02231A438262816081681A
:100B400042051143816081680029FCDB8168012234
:100B5000114381600168C907FCD0816804221143F8
:100B600081607047001002400024014070B50446C7
:100B700000F0EEF80546601C02D004480078241806
:100B800000F0E6F8401BA042FAD370BD0C00002034
:100B9000F8B5002303240125BFE02E469E40B4464D
:100BA00032407CD00E79B607B60F012E01D0022E4E
:100BB00017D186682746B6465E00B740009676464F
:100BC000BE43B646CF68009EB7407646374387603F
:100BD00046686746BE430F79FF06FF0F9F403743C5
:100BE00047600E79F643B6070ED0C6682746B4466E
:100BF0005E00B646B7406646BE43B4468F6876464A
:100C0000B74066463743C7600E79B607B60F022E67
:100C100014D1DE08B60036180096366A5F07B4466F
:100C2000FE0E0F27B646B7406646BE43B4460F6970
:100C30007646B74066463743009E376206682746C9
:100C4000B4465E00B646B7406646BE430F79B4462A
:100C5000BF07BF0F7646B7406646374307604E680A
:100C6000B603B60F58D0304FBE692E43BE61BE6981
:100C70009F08F607F60F2D4EBF00BE190096B66806
:100C80000F27B4469E07360FB646B7406646BE43AA
:100C90000927FF06B446B84202D1002715E03BE021
:100CA000234FB84201D101270FE0224FB84201D1B2
:100CB00002270AE0204FB84201D1032705E01F4F69
:100CC000B84201D1042700E005277646B7406646C2
:100CD0003743009EB7601A4E36684F689643FF034D
:100CE00000D51643164F3E607E684F689643BF039B
:100CF00000D51643124F7E60BE684F689643FF02D0
:100D000000D516430E4FBE60FE684F689643BF0283
:100D100000D516430A4AD6605B1C0A681646DE40B8
:100D200000D03AE7F8BD000000100240000001408A
:100D30000004004800080048000C0048001000486B
:100D400000040140002A01D0816170478162704730
:100D500001488068704700000C000020024881684C
:100D600002788918816070470C00002010B5064891
:100D70000168102211430160032000F007F800F021
:100D800027F8002010BD00000020024070B5044686
:100D90000D4D7D202978C000FFF7BDFA01460B48B4
:100DA0000068FFF7B8FA00F001FB002809D1042C15
:100DB00007D200222146401E00F01EF800206C6081
:100DC00070BD012070BD00000C0000201800002044
:100DD00008B5084881690122114381618169114088
:100DE0000091C26901040A43C261C06908400090D1
:100DF00008BD00000010024010B500F0E3FB10BD7C
:100E0000F8B50F4606005FD03D4D2868C007C00FFB
:100E1000B84209D228684008400038432860286852
:100E2000C007C00FB8424FD13068364C81070CD58F
:100E3000400704D5606807210902084360606068C4
:100E4000F0218843B168084360603078C0072CD037
:100E50007068012810D0022811D0032812D0216810
:100E60008907002930DA61688908890001436160D7
:100E7000FFF76EFF009011E021688903F1E7216818
:100E80008901EEE7616BC903EBE7FFF761FF0099AA
:100E9000411A1D48814201D90320F8BD60680C2128
:100EA0000840716889008842EFD12868C007C00FE8
:100EB000B8420BD9286840084000384328602868A9
:100EC000C007C00FB84201D00120F8BD30784007FC
:100ED00006D56068072109028843F168084360600D
:100EE00000F018F86168094A0906090F515CC8400A
:100EF000074908600320FFF749FF0020F8BD000004
:100F0000002002400010024088130000E01D00088D
:100F10001800002030B519A30FCB89B06C460FC460
:100F20001AA30FCB0FC41D4A51680C200B46034077
:100F30001B48042B05D01B4D082B04D00C2B00D1D3
:100F4000284609B030BD8B021B0F6C46E45CD26AA8
:100F500004AB1207120FC9039A5C890F022901D052
:100F6000032901D0002301E0002328460021FFF7D8
:100F700031F9214600F00EFBE3E70000020304050F
:100F8000060708090A0B0C0D0E0F101001020304CE
:100F900005060708090A0B0C0D0E0F100010024081
:100FA00000127A00006CDC02FEB5040070D02078DC
:100FB000F94EFA4DC00748D068680007800F012835
:100FC0001FD068680007800F022804D16868C0033A
:100FD000800F022815D06168012919D001208004F2
:100FE000002901D0052917D02968B1432960296853
:100FF00081432960606800281BD0FFF7A9FE0746DF
:1010000013E02868800320D560680028CED01CE05B
:10101000286830432860EDE7296801432960F7E735
:10102000FFF796FEC01B642870D828688003F7D5A8
:101030000BE0FFF78DFE074604E0FFF789FEC01BBB
:101040006428F1D828688003F7D4207880073FD53A
:1010500068680007800F14D068680007800F0228B6
:1010600004D16868C003800F01280AD0E068002816
:1010700028681ED0012108432860FFF769FE074653
:101080000CE0286880070CD5E068012800D108E052
:1010900080E1FFF75DFEC01B0228C5D828688007E5
:1010A000F7D52868F82188432169C90008432860DA
:1010B0000EE0400840002860FFF74AFE074604E0C3
:1010C000FFF746FEC01B0228AED828688007F7D479
:1010D0002078000723D5E0690028686A0FD0012135
:1010E00008436862FFF734FE074604E0FFF730FE6E
:1010F000C01B022898D8686A8007F7D50FE040081F
:1011000040006862FFF724FE074605E0C3E0FFF7F2
:101110001FFEC01B022887D8686A8007F7D4207892
:1011200004274007002861DA00200190E869C00028
:1011300008D4E969B8060143E961E9690140012081
:101140000091019096480168C90511D40168821583
:1011500011430160FFF7FCFD009005E0FFF7F8FD8B
:101160000099401A642898D88D480068C005F5D5C4
:10117000A06801280AD0002801D0052811D0286ACB
:10118000400840002862286AB84302E0286A01212A
:1011900008432862A068002812D0FFF7D9FD00900C
:1011A0000AE0286A38432862F0E7FFF7D1FD00998A
:1011B000411A7C4881426ED8286A8007F5D50DE037
:1011C000FFF7C6FD009006E0FFF7C2FD0099411A47
:1011D000744881425FD8286A8007F5D401980028B6
:1011E00004D0E969012000078143E9612078C00645
:1011F00035D5606901280CD0401D686B24D0384378
:101200006863686B400840006863FFF7A1FD07460C
:1012100022E0686B38436863686B012108436863A8
:10122000FFF796FD074604E0FFF792FDC01B02287A
:1012300031D8686B8007F7D5686BF8218843A169BE
:10124000C900084368630AE0B8436863F4E7FFF73E
:101250007FFDC01B02281ED8686B8007F7D420785A
:10126000800637D568680007800F032814D06868A7
:101270000007800F022804D16868C003800F03288C
:101280000AD0206A0028686B16D030436863FFF7E5
:101290005FFD06460CE062E0686BC0031AD5206A69
:1012A000012877D116E0FFF753FD801B022856D89E
:1012B000686BC003F7D50DE0B0436863FFF748FDE6
:1012C000064604E0FFF744FD801B022847D8686B00
:1012D000C003F7D4606A002866D069680907890FDF
:1012E000022942D0012636060228286805D0B043DC
:1012F0002860FFF72DFD044633E0B0432860FFF778
:1013000027FD074604E0FFF723FDC01B022826D86F
:1013100028688001F7D4E86A216B000900010843BE
:10132000E862A16AE06A084369687B22D2039143BC
:1013300008436860286830432860FFF709FD0446C9
:1013400004E0FFF705FD001B022808D8286880018B
:10135000F7D529E0FFF7FCFC001B022801D9032088
:10136000FEBD28688001F5D41EE00128F8D0686829
:10137000E96A0322D203A36A02409A420AD109070A
:10138000226B090F914205D10F2189040840E16ABF
:10139000884209D00120FEBD00000100001002407B
:1013A00000700040881300000020F4E7094910B5E0
:1013B000401E884201D9012010BD074C6061032105
:1013C000081F00F0FFF80020A06107202061002026
:1013D00010BD0000FFFFFF0000E000E0FEE700009E
:1013E00030B51D488BB001683122D2051143016030
:1013F0001A4C216801221143216041680523DB0258
:1014000019434160416A164B1943416215490B6902
:10141000154D2B430B610B6813430B600914FFF749
:1014200091FC012211462046FFF78CFC14220F4943
:101430006846FEF797FE69462046FFF7A9FB0B4971
:101440001422143105A8FEF78DFE092005A9C00657
:10145000FFF79EFB0BB030BD0004004800080048B9
:101460000010500000580040130F4210B81D000833
:10147000FEE7000070B51E48416A1E4A1E4C8918DE
:101480002181510C4162E0882D2148432189401A75
:1014900060816089E1784843A1884018A0800421D8
:1014A000615E1920C001814201DBA08005E00420BB
:1014B000205E002801DA0020F7E7A0786189484320
:1014C000A188401800B24511642D01DB642502E0BB
:1014D000002D00DA0025E8B200F04EFA257007482A
:1014E0000068400703D5054840300068607070BD53
:1014F000000400400180FFFF0000002000240140A4
:101500007047704710B5FFF729FC10BD10B592B0B9
:1015100034216846FEF7FDFE00240F94022000905F
:101520000D9401200E9403901020099404901094BF
:101530006846FFF739FD002801D072B6FEE70720A4
:101540000D900E940F94002110940DA8FFF758FCF5
:10155000002801D072B6FEE712B010BD704700003F
:1015600010B50848416A084A8918084A1181064995
:1015700049424162FFF77EFF054801694908490079
:10158000016110BD000400400180FFFF0000002049
:1015900000100040F8B5040C8BB2264682B25E43C0
:1015A0000D0C1046370C5843360480190021794140
:1015B00016466E43370C36048019794126466E4331
:1015C0008919F8BD8307FF22DB0E9A408907090EAF
:1015D0009940002808DB830809489B001B181868FD
:1015E00090430843186070470007000F08388308CD
:1015F00004489B001B18D86990430843D861704782
:1016000000E400E000ED00E0F8B51C4C60681C4907
:101610000843606060682115884360606068C900A5
:101620000843606002251026A069A1692840314066
:101630000843F9D0A069134FC00604D50122402108
:101640003846FFF77FFB1C20A062A069A1692840F3
:1016500031400843F9D0A069C00604D501224021D9
:101660003846FFF76FFB0020A062A0694006FCD55A
:1016700060680121890308436060F8BD005800409C
:10168000D000020000080048254948690122920460
:10169000104348612348026805231B029A430260F5
:1016A00002685B001A430260026A11231B041A439A
:1016B0000262C86902221043C8611B48002282618D
:1016C0000262826002608269FF2302331A438261F0
:1016D000826803231A438260144AC2625210426233
:1016E0000368012213430360C86910231843C861CB
:1016F0000F480B2181620F49C162C1681143C1606B
:101700000168114301600C49401308600B490868E7
:10171000FF2212029043DA02104308607047000073
:10172000001002400004004800040040FFFF0000D9
:10173000001000403075000000E100E010E400E01F
:10174000F8B51C4C60681C4908436060606821154E
:10175000884360606068C900084360600225102605
:10176000A069A169284031400843F9D0A069134F0E
:10177000C00604D5012239461148FFF7E3FA1B20C1
:10178000A062A069A169284031400843F9D0A0694E
:10179000C00604D5012239460948FFF7D3FA0020D4
:1017A000A062A0694006FCD5606801218903084356
:1017B0006060F8BD00580040D00002000001000049
:1017C0000008004808B5FFF7D1FA414842690121F5
:1017D000C9040A43426142690A40009242694910C1
:1017E0000A43426142690A400092C26909010A4300
:1017F000C261C06908400090FFF7F2FD00F02EFAC8
:1018000000F0EAF9FFF79CFFFFF7FEFE00F066F834
:10181000FFF77CFE00200126B6072E4C2E4D282710
:1018200000902C4800F048F98020FFF79FF92948E4
:1018300000F0B0F88020FFF799F9706A00908020DE
:10184000FFF794F92F80FFF715FE00221346E16998
:10185000A06900F07DFA09D200221346E168A06871
:1018600000F076FA02D23120C0432FE00022134666
:10187000E169A06900F03AFA08D200221346E16853
:10188000A06800F065FA01D232201FE00022134662
:10189000E169A06900F05CFA09D200221346E16810
:1018A000A06800F023FA02D21820C0430EE0002204
:1018B0001346E169A06900F019FAB2D2002213467A
:1018C000E168A06800F012FAABD219202880A8E7DE
:1018D00000100240200000200600002000B500F0AB
:1018E00005F8FFF7D1FEFFF713F900BD0920C00688
:1018F000016801225202114301600268FF21013197
:101900008A430260026A0F231B049A430262026A3E
:101910008B021A43026202680F239B029A43026001
:10192000026805239B021A430260426920231A437E
:101930004261426940239A4342610D48C2690A43A9
:10194000C2610C48002101608161016282696823E3
:101950001A438261036A01221343036282624B23AA
:101960001B01C362416301681143016070470000BD
:10197000001002400020004010B5642806D8044C36
:10198000E26A64215043FEF7C6FC606310BD0000AC
:1019900000200040F8B5424C06466068414D2840A2
:1019A0006060606840490843606060682715B8431C
:1019B0006060606861140843606002201021A269C1
:1019C000A36902400B401A43F9D0A069C00604D5B0
:1019D000012211023548FFF7B5F93D20A062A06948
:1019E0004006FCD560682840606060683049084364
:1019F00060606068384360606068012149030843A3
:101A000060602A4D4F11A069400703D5606A69469E
:101A1000087008E0A069C006F5D5012239462846BD
:101A2000FFF790F9EFE7A069400724D5616A2046E7
:101A30006A46517081691F4C4906FBD541686201B5
:101A4000114341606846008840BA00B23080FEF71A
:101A500058FF0D22D243FEF75FFF0022F1601346CC
:101A6000B06000F043F90FD8002239462846FFF74E
:101A700069F901220EE0A069C006D4D501223946D9
:101A80002846FFF75FF9CEE7012239462846FFF7DF
:101A900059F9002221462846FFF754F9F8BD000005
:101AA0000058004000FC80FFD00001000008004802
:101AB000D000020000020000F8B5414C0646606804
:101AC000404D2840606060683F490843606060683E
:101AD0002715B843606060686114084360600220A5
:101AE0001021A269A36902400B401A43F9D0A069F2
:101AF000C00604D5012211023448FFF723F945201E
:101B0000A062A0694006FCD56068284060606068FB
:101B10002F49084360606068384360606068012155
:101B2000490308436060294D4F11A069400703D560
:101B3000606A6946087008E0A069C006F5D5012210
:101B400039462846FFF7FEF8EFE7A069400723D59E
:101B5000606A69464870A0694006FCD5606801214A
:101B60008903084360606846008840BA00B230824A
:101B7000FEF7C7FE0022174BFEF77EFC0022F16144
:101B80001346B06100F0B2F80FD800224021284679
:101B9000FFF7D8F801220EE0A069C006D5D50122D2
:101BA00039462846FFF7CEF8CFE7012240212846E4
:101BB000FFF7C8F8002280212846FFF7C3F8F8BDD8
:101BC0000058004000FC80FFD000010000080048E1
:101BD000D000020000606040F8B51C4C60681C49F1
:101BE0000843606060682115884360606068C900D0
:101BF0000843606002251026A069A1692840314091
:101C00000843F9D0A069134FC00604D50122394614
:101C10001148FFF797F81920A062A069A169284030
:101C200031400843F9D0A069C00604D501223946E5
:101C30000948FFF787F80720A062A0694006FCD595
:101C400060680121890308436060F8BD00580040C6
:101C5000D00002000001000000080048F8B51E4C4A
:101C600060681E490840606060681D490843606004
:101C700060682115884360606068C900084360603F
:101C800002251026A069A169284031400843F9D0F7
:101C9000A069144FC00604D5012239461248FFF747
:101CA00051F86B20A062A069A16928403140084327
:101CB000F9D0A069C00604D5012239460A48FFF7C9
:101CC00041F80020A062A0694006FCD560680121AF
:101CD000890308436060F8BD0058004000FC80FFA5
:101CE000D0000200000100000008004870B5012586
:101CF0000C002D051C4310D4EC4206D4AC420AD48F
:101D0000994200D070BD904270BDE94217D4EB42B9
:101D100015D4994270BD894270BDEC4206D5AC42E3
:101D2000F9D58B4200D070BD824270BD6D004C0071
:101D3000EC4204D25C00EC4201D28B4270BD034CF9
:101D400030B4FEF719FE30BC70BD00BF1900160498
:101D500070B501251C002D050C4310D4EC4206D4AF
:101D6000AC420AD48B4200D070BD824270BDEB42BF
:101D700017D4E94215D48B4270BD9B4270BDEC4232
:101D800006D5AC42F9D5994200D070BD904270BDE5
:101D90006D005C00EC4204D24C00EC4201D299424E
:101DA00070BD0FB4034C0CBC03BC30B4FEF7E4FDB3
:101DB00030BC70BD19001604C00300000100000013
:101DC0000000000000000000000000001000000003
:101DD0000000000003000000000000000000000000
:101DE00000000000000000000102030406070809CB
:101DF00080807F7E7D7C7B7A797877767675747348
:101E0000727171706F6E6E6D6C6C6B6A6A69686806
:101E1000676666656464636362616160605F5F5E9C
:101E20005E5D5D5C5C5B5B5A5A5959585857575612
:101E30005655555554545353525252515150505077
:101E40004F4F4F4E4E4D4D4D4C4C4C4B4B4B4A4AC9
:101E50004A4949494848484747474746464645450D
:101E60004544444444434343434242424241414146
:101E7000901E0008000000201C0000000401000863
:101E8000AC1E00081C000020840600002001000891
:101E9000000001010000000000000000010000003F
:0C1EA000040000000000000000127A00A6
:04000005080000C12E
:00000001FF
