:020000040800F2
:10000000800600209D0100082514000891130008B7
:1000100000000000000000000000000000000000E0
:10002000000000000000000000000000C7140008ED
:100030000000000000000000C5140008C9140008FA
:10004000AF010008AF010008AF010008AF010008D0
:10005000AF010008AF010008AF010008AF010008C0
:10006000AF010008AF010008AF010008AF010008B0
:10007000AF010008AF010008AF010008AF010008A0
:10008000AF01000825150008AF010008AF01000806
:10009000AF010008AF010008AF010008AF01000880
:1000A000AF010008AF010008AF010008AF01000870
:1000B000AF010008AF010008AF010008AF01000860
:1000C00000F002F800F03EF80CA030C80838241800
:1000D0002D18A246671EAB4654465D46AC4201D180
:1000E00000F030F87E460F3E0FCCB6460126334274
:1000F00000D0FB1AA246AB4633431847181600003F
:1001000038160000103A02D378C878C1FAD85207DE
:1001100001D330C830C101D504680C6070470000BD
:100120000023002400250026103A01D378C1FBD813
:10013000520700D330C100D50B6070471FB51FBDFB
:1001400010B510BD00F0CAFC1146FFF7F7FF01F033
:100150003DFA00F0E2FC03B4FFF7F2FF03BC00F04D
:10016000E9FC000070B505460C46164602E00FCCCF
:100170000FC5103E102EFAD2082E02D303CC03C5B1
:10018000083E042E07D301CC01C5361F03E02178B9
:100190002970641C6D1C761EF9D270BD074880471B
:1001A00007480047FEE7FEE7FEE7FEE7FEE7FEE75B
:1001B00004480549054A064B704700002115000810
:1001C000C10000088000002080060020800200207E
:1001D00080020020FEB5054610460C46184373D039
:1001E000AE468C460020AD1A01469C4167D3664658
:1001F000002701243D46B61A9D4102D313463A46D4
:100200002124654676462F04360C3E432D0CB61A43
:100210009D4104D3150C1B042B4312041034654676
:1002200076462F06360A3E432D0AB61A9D4104D360
:10023000150E1B022B4312020834654676462F0723
:1002400036093E432D09B61A9D4104D3150F1B01F3
:100250002B431201241D65467646AF07B6083E4380
:10026000AD08B61A9D4104D3950F9B002B43920015
:10027000A41C65467646EF0776083E436D08B61A1D
:100280009D411AD392185B41641C16E00018764613
:1002900065464941B71A9D410191009009D36046D6
:1002A000B11A98418E468446009801990025401C59
:1002B0006941DD0752082A435B08641EE6D5724691
:1002C000634603B0F0BDFFE700200146C046C046CC
:1002D0002A462346F5E701E004C0091F0429FBD2A2
:1002E0008B0701D50280801CC90700D002707047BF
:1002F00000290BD0C30702D00270401C491E0229FE
:1003000004D3830702D50280801C891EE3E7002204
:10031000EEE70022DFE7002203098B422CD3030A19
:100320008B4211D300239C464EE003460B433CD442
:10033000002243088B4231D303098B421CD3030AAA
:100340008B4201D394463FE0C3098B4201D3CB01DA
:10035000C01A524183098B4201D38B01C01A52410A
:1003600043098B4201D34B01C01A524103098B420E
:1003700001D30B01C01A5241C3088B4201D3CB00F9
:10038000C01A524183088B4201D38B00C01A5241DC
:1003900043088B4201D34B00C01A5241411A00D28C
:1003A00001465241104670475DE0CA0F00D04942F5
:1003B000031000D34042534000229C4603098B4265
:1003C0002DD3030A8B4212D3FC22890112BA030AED
:1003D0008B420CD3890192118B4208D3890192116F
:1003E0008B4204D389013AD0921100E08909C309F4
:1003F0008B4201D3CB01C01A524183098B4201D3F6
:100400008B01C01A524143098B4201D34B01C01AE0
:10041000524103098B4201D30B01C01A5241C30858
:100420008B4201D3CB00C01A524183088B4201D3C7
:100430008B00C01A5241D9D243088B4201D34B00E2
:10044000C01A5241411A00D20146634652415B1024
:10045000104601D34042002B00D549427047634605
:100460005B1000D3404201B50020C046C04602BD2B
:100470007047704770470000F0B50C46871A9C41E2
:100480000D46861A9D4103D2C01BA141D21963417A
:100490000D0D1F0DC94EEC1BAE435CD07F057F0DCB
:1004A0000026002F51D02D05AC46A943DD020123C3
:1004B000ED0A1B051D4320231B1B24D41746E740D0
:1004C000381871412F46E740CC199D402818314615
:1004D00061410C0D27D161449A4013D50023401C83
:1004E000594152000ED14008400001224B005205F4
:1004F000D34207D305204007C14201D5B04900E0EF
:10050000B0493046F0BD6B00002A00D001229A1895
:100510001F23203C1B1B01D5002302E0E5402818C7
:1005200071410C0DD7D0012424050919C407CD074A
:1005300040084908E40F28436144002CD5D000242A
:10054000401C61419A40D0D1CDE76A05520DD9D106
:10055000C90FC907D5E79C4D4E00002801D00124E2
:1005600000E0002434195F00002A01D0012600E0D9
:100570000026BE19954FAC420CD8AE420AD8B44200
:1005800006D001256D05EC42BCD010461946F0BDE1
:100590009942FCD000203946F0BDF0B51FB40C469E
:1005A0000F46811A9F412546861A9D4106D2012594
:1005B000ED076F40401ABC4152187B41210D1E0DC2
:1005C0008D1BAC467D4D8D437ED075056D0D7CD069
:1005D0000D05AE46AC431B031B0B794D52429D41AA
:1005E000202366469B1B14D31746F7403818002675
:1005F0000090744160462F460741E41900989D40E1
:100600002818664116D4714671189A4025D50123E1
:1006100020E093182A466A415200002B00D0521C59
:100620001E23203E9B1B002B61DD3541EE17281851
:100630006641E8D5001876415B1C9A4000D3401C07
:100640004B05F3181524E34010D3002B52D071460C
:100650007118D30FC01802D3491C05B0F0BD012397
:10066000DB079A42F9D140084000F6E70122520523
:10067000B21801D1002853D00123CC0ADB029943E0
:10068000891E002A08D1020C03D0020C0004103984
:1006900002E00246002020390023550B05D112024A
:1006A0000823550B01D152010D23550C01D1120124
:1006B0001B1DD50C01D192009B1C150D01D15200C0
:1006C0005B1C2025EE1A01E02CE022E00546F540F7
:1006D00015439840CA1AE10769181305C918002A7A
:1006E000BBDA032040070818C10FC9070FE07146A5
:1006F0006118B2E7F10740080843711071444A00DD
:100700000CD001235B059A42A7D2C90FC90700206C
:10071000A3E74905490D26D1002001E00028F4D1C6
:1007200000219AE7284D6600002801D0012100E051
:10073000002171185F00002A01D0012600E0002688
:10074000BE19224FA94210D8AE420ED8B14208D0ED
:1007500001256D05E94206D01946A8024140104620
:100760007BE79C4201D0214677E70020394674E7B9
:1007700010B50C465C4005D50124E4076340FFF743
:100780000CFF10BDFFF778FE10BD30B40C465C4086
:1007900004D50124E407634030BC6DE630BCFCE6C0
:1007A00070B50124E40761400D465D4002D4FFF7B7
:1007B00063FE70BD6340FFF7F0FE70BDFF070000F1
:1007C0000000F0FF0000F07F0000E0FF0000F87F75
:1007D00030B50346CA02400D1043164D164C0A159B
:1007E00002D02043002A06DBAA1A002A12DDD040DC
:1007F000FF2A0BDC30BD5205520D01D140004008EC
:10080000AA1A07D4D0404042FF2A01DD002030BDA3
:100810000028FCDD4A00002B01D0012000E0002070
:10082000101801225205D042F0D8C817C0436040CA
:1008300030BD00001E040000000000801F22030CD9
:1008400002D10F22000402D0030E03D004E00020E6
:10085000014670470002083A030F01D10001121F40
:10086000830F01D18000921E002801DB4000521E40
:10087000120551184205C012411810467047C10FA9
:10088000C90700D04042012292071143D6E7012157
:100890008907D3E7F0B58B4C0F09254689B0BD43D6
:1008A0007BD01D092646AE43FAD00E465E40274057
:1008B000F60F3E43254071D024012142FBD0FF2496
:1008C000AD19A4042D1B039501252D05DB02DB0AC0
:1008D000C9022B43C90A29431E010901040F130F42
:1008E000050121431701880B820391432D098C4692
:1008F000A90B1E438A039543B30B9A0396433F0902
:10090000BA0B9403A74302962E467E430497B6463D
:100910004E19D7190C460196544305977E43371B51
:100920007646BF1B3601B646BE0B36190096764694
:10093000BC043719009C01D3641C00946400002F90
:1009400001D001263443029E049F754366467E43D0
:100950000496760034196E0034190094029C019EAE
:100960001C196643751BAE46069465464519059CE1
:1009700005956C43594375460891691A0191049E87
:1009800001465143A41B0491611A009C0791E106A2
:1009900005D061090122114302E072E06EE06109B5
:1009A000089D00272C0A2D066918049D7C412A0AFF
:1009B0002D066918019D6241AC0DAD026D185441C0
:1009C000079A910D920255196141029A6446584363
:1009D0005443069B059A5A43121A131B9A0E9B0105
:1009E0005B187A41010B0005C3185141220A200609
:1009F00044195A419A4200D2491C012040028142C6
:100A000003D315230226F64302E014230326F643FC
:100A10002020C51AA9401746AF40DA400A432046B5
:100A20000399D8400914731819055118039A3843CB
:100A3000D2075140AC4009D00122944006D3002295
:100A4000401C5141002C01D1400840001E4A9342F5
:100A500012D3012203989206904207DB052040073B
:100A600009181A480143C012414004E0032040071E
:100A70000818C10FC907002009B0F0BD0020F10718
:100A8000FAE705180C464C4111486D42A04115D3B8
:100A900094181A465A410E48644290410ED30120E0
:100AA0004A004005824209D35A00824206D3594087
:100AB000C90F084AC90700201143DDE70020064995
:100AC000DAE700000000FF07FE070000FFFFFF7FDE
:100AD0000000E0FF0000F07F0000F87F754600F0A6
:100AE00025F8AE46050069465346C008C000854655
:100AF00018B020B5FFF75CFB60BC00274908B6467C
:100B00000026C0C5C0C5C0C5C0C5C0C5C0C5C0C51C
:100B1000C0C5403D49008D46704710B50446C046EB
:100B2000C0462046FFF717FB10BD00000048704785
:100B30001C00002001491820ABBEFEE72600020081
:100B400070470000F8B5002303240125BFE02E46BE
:100B50009E40B44632407CD00E79B607B60F012EC7
:100B600001D0022E17D186682746B6465E00B740F0
:100B700000967646BE43B646CF68009EB74076469E
:100B80003743876046686746BE430F79FF06FF0F0D
:100B90009F40374347600E79F643B6070ED0C668CC
:100BA0002746B4465E00B646B7406646BE43B446E6
:100BB0008F687646B74066463743C7600E79B607FA
:100BC000B60F022E14D1DE08B60036180096366A2B
:100BD0005F07B446FE0E0F27B646B7406646BE43D3
:100BE000B4460F697646B74066463743009E376283
:100BF00006682746B4465E00B646B7406646BE4322
:100C00000F79B446BF07BF0F7646B74066463743F5
:100C100007604E68B603B60F58D0304FBE692E43FA
:100C2000BE61BE699F08F607F60F2D4EBF00BE19C4
:100C30000096B6680F27B4469E07360FB646B740F3
:100C40006646BE430927FF06B446B84202D10027D4
:100C500015E03BE0234FB84201D101270FE0224FBE
:100C6000B84201D102270AE0204FB84201D1032740
:100C700005E01F4FB84201D1042700E00527764662
:100C8000B74066463743009EB7601A4E36684F68D5
:100C90009643FF0300D51643164F3E607E684F68AB
:100CA0009643BF0300D51643124F7E60BE684F685F
:100CB0009643FF0200D516430E4FBE60FE684F6894
:100CC0009643BF0200D516430A4AD6605B1C0A68E9
:100CD0001646DE4000D03AE7F8BD000000100240A2
:100CE000000001400004004800080048000C0048D3
:100CF0000010004800040140002A01D081617047C3
:100D00008162704701488068704700000C00002035
:100D10000248816802788918816070470C000020C1
:100D200010B506480168102211430160032000F04D
:100D300007F800F027F8002010BD00000020024056
:100D400070B504460D4D7D202978C000FFF7E3FA09
:100D500001460B480068FFF7DEFA00F001FB0028AF
:100D600009D1042C07D200222146401E00F01EF8B3
:100D700000206C6070BD012070BD00000C000020E0
:100D80001800002008B508488169012211438161DB
:100D9000816911400091C26901040A43C261C069BE
:100DA0000840009008BD00000010024010B500F09F
:100DB000EBFB10BDF8B50F4606005FD03D4D28682F
:100DC000C007C00FB84209D2286840084000384325
:100DD00028602868C007C00FB8424FD13068364C31
:100DE00081070CD5400704D5606807210902084334
:100DF00060606068F0218843B168084360603078C3
:100E0000C0072CD07068012810D0022811D0032808
:100E100012D021688907002930DA616889088900C1
:100E200001436160FFF76EFF009011E021688903C4
:100E3000F1E721688901EEE7616BC903EBE7FFF792
:100E400061FF0099411A1D48814201D90320F8BD74
:100E500060680C210840716889008842EFD12868D9
:100E6000C007C00FB8420BD928684008400038437B
:100E700028602868C007C00FB84201D00120F8BD23
:100E80003078400706D56068072109028843F16879
:100E90000843606000F018F86168094A0906090F04
:100EA000515CC840074908600320FFF749FF002054
:100EB000F8BD00000020024000100240881300002E
:100EC000041700081800002030B519A30FCB89B013
:100ED0006C460FC41AA30FCB0FC41D4A51680C20D7
:100EE0000B4603401B48042B05D01B4D082B04D098
:100EF0000C2B00D1284609B030BD8B021B0F6C466D
:100F0000E45CD26A04AB1207120FC9039A5C890F22
:100F1000022901D0032901D0002301E00023284643
:100F20000021FFF757F9214600F016FBE3E7000028
:100F300002030405060708090A0B0C0D0E0F10101A
:100F40000102030405060708090A0B0C0D0E0F1019
:100F50000010024000127A00006CDC02FEB50400B2
:100F600070D02078F94EFA4DC00748D06868000765
:100F7000800F01281FD068680007800F022804D165
:100F80006868C003800F022815D06168012919D054
:100F900001208004002901D0052917D02968B14318
:100FA0002960296881432960606800281BD0FFF709
:100FB000A9FE074613E02868800320D56068002852
:100FC000CED01CE0286830432860EDE72968014353
:100FD0002960F7E7FFF796FEC01B642870D82868E1
:100FE0008003F7D50BE0FFF78DFE074604E0FFF71F
:100FF00089FEC01B6428F1D828688003F7D42078C4
:1010000080073FD568680007800F14D06868000724
:10101000800F022804D16868C003800F01280AD01D
:10102000E068002828681ED0012108432860FFF7E7
:1010300069FE07460CE0286880070CD5E0680128A7
:1010400000D108E080E1FFF75DFEC01B0228C5D893
:1010500028688007F7D52868F82188432169C900E6
:10106000084328600EE0400840002860FFF74AFE71
:10107000074604E0FFF746FEC01B0228AED82868EA
:101080008007F7D42078000723D5E0690028686A34
:101090000FD0012108436862FFF734FE074604E0E1
:1010A000FFF730FEC01B022898D8686A8007F7D582
:1010B0000FE0400840006862FFF724FE074605E0A5
:1010C000C3E0FFF71FFEC01B022887D8686A8007AD
:1010D000F7D4207804274007002861DA0020019027
:1010E000E869C00008D4E969B8060143E961E96923
:1010F000014001200091019096480168C90511D472
:101100000168821511430160FFF7FCFD009005E0C6
:10111000FFF7F8FD0099401A642898D88D480068B8
:10112000C005F5D5A06801280AD0002801D00528FF
:1011300011D0286A400840002862286AB84302E0BB
:10114000286A012108432862A068002812D0FFF70E
:10115000D9FD00900AE0286A38432862F0E7FFF7DB
:10116000D1FD0099411A7C4881426ED8286A8007D7
:10117000F5D50DE0FFF7C6FD009006E0FFF7C2FDD4
:101180000099411A744881425FD8286A8007F5D4D3
:101190000198002804D0E969012000078143E96132
:1011A0002078C00635D5606901280CD0401D686BD9
:1011B00024D038436863686B400840006863FFF7D9
:1011C000A1FD074622E0686B38436863686B012124
:1011D00008436863FFF796FD074604E0FFF792FDBA
:1011E000C01B022831D8686B8007F7D5686BF821DF
:1011F0008843A169C900084368630AE0B84368638B
:10120000F4E7FFF77FFDC01B02281ED8686B80073C
:10121000F7D42078800637D568680007800F032848
:1012200014D068680007800F022804D16868C003E2
:10123000800F03280AD0206A0028686B16D030433C
:101240006863FFF75FFD06460CE062E0686BC00371
:101250001AD5206A012877D116E0FFF753FD801BCD
:10126000022856D8686BC003F7D50DE0B043686319
:10127000FFF748FD064604E0FFF744FD801B022807
:1012800047D8686BC003F7D4606A002866D06968E5
:101290000907890F022942D001263606022828684C
:1012A00005D0B0432860FFF72DFD044633E0B0437E
:1012B0002860FFF727FD074604E0FFF723FDC01B6A
:1012C000022826D828688001F7D4E86A216B000933
:1012D00000010843E862A16AE06A084369687B226A
:1012E000D203914308436860286830432860FFF7C1
:1012F00009FD044604E0FFF705FD001B022808D89D
:1013000028688001F7D529E0FFF7FCFC001B0228C4
:1013100001D90320FEBD28688001F5D41EE0012814
:10132000F8D06868E96A0322D203A36A02409A42AD
:101330000AD10907226B090F914205D10F218904B7
:101340000840E16A884209D00120FEBD000001008A
:101350000010024000700040881300000020F4E7F5
:10136000094910B5401E884201D9012010BD074C23
:1013700060610321081F00F007F90020A061072029
:101380002061002010BD0000FFFFFF0000E000E032
:10139000FEE7000030B51D488BB001683122D20550
:1013A000114301601A4C21680122114321604168F8
:1013B0000523DB0219434160416A164B1943416220
:1013C00015490B69154D2B430B610B6813430B60DB
:1013D0000914FFF791FC012211462046FFF78CFC0F
:1013E00014220F496846FEF7BDFE69462046FFF706
:1013F000A9FB0B491422143105A8FEF7B3FE0920FE
:1014000005A9C006FFF79EFB0BB030BD00040048E5
:10141000000800480010500000580040130F421010
:10142000DC160008FEE7000070B5224C0820205EA4
:10143000FFF725FA054606200E46205EFFF71FFA45
:101440001D4A1E4BFFF726FA2A463346FFF79DF941
:10145000FFF7BEF960816089E1784843A1884018B0
:10146000A0800421615E1920C001814201DBA080BF
:1014700005E00420205E002801DA0020F7E7A078CC
:1014800061894843A188401800B24511642D01DBF1
:10149000642502E0002D00DA0025E8B200F0BAF879
:1014A000257007480068400703D5054840300068AC
:1014B000607070BD0000002033333333333303409A
:1014C000002401407047704710B5FFF721FC10BDA4
:1014D00010B592B034216846FEF71BFF00240F942C
:1014E000022000900D9401200E9403901020099486
:1014F000049010946846FFF731FD002801D072B6C1
:10150000FEE707200D900E940F94002110940DA873
:10151000FFF750FC002801D072B6FEE712B010BDF4
:101520007047000010B50848416A084A8918084AFF
:101530001181064949424162FFF776FF054801697A
:1015400049084900016110BD000400400180FFFF0F
:101550000000002000100040F8B5040C8BB22646B5
:1015600082B25E430D0C1046370C58433604801986
:101570000021794116466E43370C360480197941B3
:1015800026466E438919F8BD8307FF22DB0E9A4079
:101590008907090E9940002808DB830809489B0049
:1015A0001B18186890430843186070470007000F25
:1015B0000838830804489B001B18D86990430843E7
:1015C000D861704700E400E000ED00E008B5FFF7E7
:1015D000A7FB0F4842690121C9040A4342614269DD
:1015E0000A400092426949100A43426142690A4036
:1015F0000092C26909010A43C261C06908400090B3
:10160000FFF7C8FE00F014F8FFF762FFFEE70000E6
:101610000010024010B5642806D8044CE26A642128
:101620005043FEF778FE606310BD000000200040CC
:10163000F8B5264C60682649084360606068261546
:10164000B043606060686714384360600221102511
:10165000A069A26908402A401043F9D0A069C006D9
:1016600004D5012240211B48FFF746FB7520A062EC
:10167000A0694006FCD5606817490843606060684F
:10168000304360606068384360600421A069A269EB
:1016900008402A401043F9D0A069C00604D50122B1
:1016A00040210C48FFF728FBA0694006FCD5606A82
:1016B000682804D1012251020648FFF71DFB60682B
:1016C0000121890308436060F8BD00000058004014
:1016D000D000010000080048D0040100C003000051
:1016E00001000000000000000000000000000000F9
:1016F00010000000000000000300000000000000D7
:1017000000000000000000000000000001020304CF
:101710000607080934170008000000201C0000001C
:1017200004010008501700081C0000206406000097
:10173000200100080000010100000000000000007E
:1017400001000000040000000000000000127A0008
:04000005080000C12E
:00000001FF
